{
  "contractName": "SmartContract",
  "abi": [
    {
      "inputs": [],
      "name": "empfaenger",
      "outputs": [
        {
          "internalType": "address",
          "name": "",
          "type": "address"
        }
      ],
      "stateMutability": "view",
      "type": "function"
    },
    {
      "inputs": [],
      "name": "sender",
      "outputs": [
        {
          "internalType": "address",
          "name": "",
          "type": "address"
        }
      ],
      "stateMutability": "view",
      "type": "function"
    },
    {
      "inputs": [
        {
          "internalType": "address",
          "name": "external_empfaenger",
          "type": "address"
        }
      ],
      "name": "deposit",
      "outputs": [],
      "stateMutability": "payable",
      "type": "function"
    }
  ],
  "bytecode": "0x608060405234801561001057600080fd5b50610293806100206000396000f3fe608060405260043610610051576000357c01000000000000000000000000000000000000000000000000000000009004806367e404ce1461005657806373fdd40314610081578063f340fa01146100ac575b600080fd5b34801561006257600080fd5b5061006b6100c8565b60405161007891906101e4565b60405180910390f35b34801561008d57600080fd5b506100966100ec565b6040516100a391906101e4565b60405180910390f35b6100c660048036038101906100c19190610230565b610112565b005b60008054906101000a900473ffffffffffffffffffffffffffffffffffffffff1681565b600160009054906101000a900473ffffffffffffffffffffffffffffffffffffffff1681565b6000341161011f57600080fd5b336000806101000a81548173ffffffffffffffffffffffffffffffffffffffff021916908373ffffffffffffffffffffffffffffffffffffffff16021790555080600160006101000a81548173ffffffffffffffffffffffffffffffffffffffff021916908373ffffffffffffffffffffffffffffffffffffffff16021790555050565b600073ffffffffffffffffffffffffffffffffffffffff82169050919050565b60006101ce826101a3565b9050919050565b6101de816101c3565b82525050565b60006020820190506101f960008301846101d5565b92915050565b600080fd5b61020d816101c3565b811461021857600080fd5b50565b60008135905061022a81610204565b92915050565b600060208284031215610246576102456101ff565b5b60006102548482850161021b565b9150509291505056fea26469706673582212207514ebf4e754cf865988b10e09e682e68e0cff5a331def797a07d75c8c6f6fed64736f6c63430008090033",
  "immutableReferences": {},
  "source": "pragma solidity ^0.8.9; //Kompilierer deklarierung\n\ncontract SmartContract { //ähnlich wie bei OOP Klassen\n\n  address public sender;        //Variable deklarierung für ETH adresen\n  address public empfaenger;\n\n   //Funktion für Zahlung\n  function deposit(address external_empfaenger) external payable { //external erluabt es diesen ausserhalb des contracts abzurufen // payable ist ein modifikator für Ether\n      require(msg.value > 0); //Bedingung das ether größer sien muss als 0 sonst wir diese snicht ausgeführt\n      sender = msg.sender; //wer sendet das Geld wird so gespeichert\n      empfaenger = external_empfaenger;\n    }\n                                // calling the account where the money beeing send to tahta account// getting a address with \"this\" is für this address contracts\n}\n",
  "sourcePath": "/Users/aram/Desktop/kontrakts/contracts/SmartContract.sol",
  "compiler": {
    "name": "solc",
    "version": "0.8.9+commit.e5eed63a.Linux.g++"
  },
  "schemaVersion": "3.4.3",
  "updatedAt": "2021-11-09T22:12:18.407Z",
  "devdoc": {
    "kind": "dev",
    "methods": {},
    "version": 1
  },
  "userdoc": {
    "kind": "user",
    "methods": {},
    "version": 1
  }
}